{
  "address": "0xc5022DA388e15DCC7fFb764f3f7a8B49c8aC48dD",
  "abi": [
    {
      "inputs": [],
      "stateMutability": "nonpayable",
      "type": "constructor"
    },
    {
      "inputs": [
        {
          "internalType": "address",
          "name": "sender",
          "type": "address"
        },
        {
          "internalType": "uint256",
          "name": "tokenId",
          "type": "uint256"
        },
        {
          "internalType": "address",
          "name": "owner",
          "type": "address"
        }
      ],
      "name": "ERC721IncorrectOwner",
      "type": "error"
    },
    {
      "inputs": [
        {
          "internalType": "address",
          "name": "operator",
          "type": "address"
        },
        {
          "internalType": "uint256",
          "name": "tokenId",
          "type": "uint256"
        }
      ],
      "name": "ERC721InsufficientApproval",
      "type": "error"
    },
    {
      "inputs": [
        {
          "internalType": "address",
          "name": "approver",
          "type": "address"
        }
      ],
      "name": "ERC721InvalidApprover",
      "type": "error"
    },
    {
      "inputs": [
        {
          "internalType": "address",
          "name": "operator",
          "type": "address"
        }
      ],
      "name": "ERC721InvalidOperator",
      "type": "error"
    },
    {
      "inputs": [
        {
          "internalType": "address",
          "name": "owner",
          "type": "address"
        }
      ],
      "name": "ERC721InvalidOwner",
      "type": "error"
    },
    {
      "inputs": [
        {
          "internalType": "address",
          "name": "receiver",
          "type": "address"
        }
      ],
      "name": "ERC721InvalidReceiver",
      "type": "error"
    },
    {
      "inputs": [
        {
          "internalType": "address",
          "name": "sender",
          "type": "address"
        }
      ],
      "name": "ERC721InvalidSender",
      "type": "error"
    },
    {
      "inputs": [
        {
          "internalType": "uint256",
          "name": "tokenId",
          "type": "uint256"
        }
      ],
      "name": "ERC721NonexistentToken",
      "type": "error"
    },
    {
      "anonymous": false,
      "inputs": [
        {
          "indexed": true,
          "internalType": "address",
          "name": "owner",
          "type": "address"
        },
        {
          "indexed": true,
          "internalType": "address",
          "name": "approved",
          "type": "address"
        },
        {
          "indexed": true,
          "internalType": "uint256",
          "name": "tokenId",
          "type": "uint256"
        }
      ],
      "name": "Approval",
      "type": "event"
    },
    {
      "anonymous": false,
      "inputs": [
        {
          "indexed": true,
          "internalType": "address",
          "name": "owner",
          "type": "address"
        },
        {
          "indexed": true,
          "internalType": "address",
          "name": "operator",
          "type": "address"
        },
        {
          "indexed": false,
          "internalType": "bool",
          "name": "approved",
          "type": "bool"
        }
      ],
      "name": "ApprovalForAll",
      "type": "event"
    },
    {
      "anonymous": false,
      "inputs": [
        {
          "indexed": true,
          "internalType": "uint256",
          "name": "tokenId",
          "type": "uint256"
        },
        {
          "indexed": true,
          "internalType": "address",
          "name": "owner",
          "type": "address"
        },
        {
          "indexed": false,
          "internalType": "string",
          "name": "nib",
          "type": "string"
        }
      ],
      "name": "LandMinted",
      "type": "event"
    },
    {
      "anonymous": false,
      "inputs": [
        {
          "indexed": true,
          "internalType": "address",
          "name": "from",
          "type": "address"
        },
        {
          "indexed": true,
          "internalType": "address",
          "name": "to",
          "type": "address"
        },
        {
          "indexed": true,
          "internalType": "uint256",
          "name": "tokenId",
          "type": "uint256"
        }
      ],
      "name": "Transfer",
      "type": "event"
    },
    {
      "anonymous": false,
      "inputs": [
        {
          "indexed": true,
          "internalType": "uint256",
          "name": "tokenId",
          "type": "uint256"
        },
        {
          "indexed": false,
          "internalType": "bool",
          "name": "isVerified",
          "type": "bool"
        }
      ],
      "name": "VerificationUpdated",
      "type": "event"
    },
    {
      "inputs": [
        {
          "internalType": "address",
          "name": "",
          "type": "address"
        }
      ],
      "name": "admins",
      "outputs": [
        {
          "internalType": "bool",
          "name": "",
          "type": "bool"
        }
      ],
      "stateMutability": "view",
      "type": "function"
    },
    {
      "inputs": [
        {
          "internalType": "address",
          "name": "to",
          "type": "address"
        },
        {
          "internalType": "uint256",
          "name": "tokenId",
          "type": "uint256"
        }
      ],
      "name": "approve",
      "outputs": [],
      "stateMutability": "nonpayable",
      "type": "function"
    },
    {
      "inputs": [
        {
          "internalType": "address",
          "name": "owner",
          "type": "address"
        }
      ],
      "name": "balanceOf",
      "outputs": [
        {
          "internalType": "uint256",
          "name": "",
          "type": "uint256"
        }
      ],
      "stateMutability": "view",
      "type": "function"
    },
    {
      "inputs": [
        {
          "internalType": "uint256",
          "name": "tokenId",
          "type": "uint256"
        }
      ],
      "name": "getApproved",
      "outputs": [
        {
          "internalType": "address",
          "name": "",
          "type": "address"
        }
      ],
      "stateMutability": "view",
      "type": "function"
    },
    {
      "inputs": [
        {
          "internalType": "uint256",
          "name": "id",
          "type": "uint256"
        }
      ],
      "name": "getLandPlotDetails",
      "outputs": [
        {
          "components": [
            {
              "internalType": "uint256",
              "name": "id",
              "type": "uint256"
            },
            {
              "internalType": "string",
              "name": "geoJSONHash",
              "type": "string"
            },
            {
              "internalType": "string",
              "name": "locationProvince",
              "type": "string"
            },
            {
              "internalType": "string",
              "name": "locationCity",
              "type": "string"
            },
            {
              "internalType": "uint256",
              "name": "areaSqm",
              "type": "uint256"
            },
            {
              "internalType": "string",
              "name": "NIB_NomorIdentitasBidang",
              "type": "string"
            },
            {
              "internalType": "bool",
              "name": "isVerified",
              "type": "bool"
            }
          ],
          "internalType": "struct TerraformaLand.LandPlot",
          "name": "",
          "type": "tuple"
        }
      ],
      "stateMutability": "view",
      "type": "function"
    },
    {
      "inputs": [],
      "name": "greeting",
      "outputs": [
        {
          "internalType": "string",
          "name": "",
          "type": "string"
        }
      ],
      "stateMutability": "view",
      "type": "function"
    },
    {
      "inputs": [
        {
          "internalType": "address",
          "name": "owner",
          "type": "address"
        },
        {
          "internalType": "address",
          "name": "operator",
          "type": "address"
        }
      ],
      "name": "isApprovedForAll",
      "outputs": [
        {
          "internalType": "bool",
          "name": "",
          "type": "bool"
        }
      ],
      "stateMutability": "view",
      "type": "function"
    },
    {
      "inputs": [
        {
          "internalType": "uint256",
          "name": "",
          "type": "uint256"
        }
      ],
      "name": "landPlots",
      "outputs": [
        {
          "internalType": "uint256",
          "name": "id",
          "type": "uint256"
        },
        {
          "internalType": "string",
          "name": "geoJSONHash",
          "type": "string"
        },
        {
          "internalType": "string",
          "name": "locationProvince",
          "type": "string"
        },
        {
          "internalType": "string",
          "name": "locationCity",
          "type": "string"
        },
        {
          "internalType": "uint256",
          "name": "areaSqm",
          "type": "uint256"
        },
        {
          "internalType": "string",
          "name": "NIB_NomorIdentitasBidang",
          "type": "string"
        },
        {
          "internalType": "bool",
          "name": "isVerified",
          "type": "bool"
        }
      ],
      "stateMutability": "view",
      "type": "function"
    },
    {
      "inputs": [
        {
          "internalType": "address",
          "name": "owner",
          "type": "address"
        },
        {
          "internalType": "string",
          "name": "geoJSONHash",
          "type": "string"
        },
        {
          "internalType": "string",
          "name": "locationProvince",
          "type": "string"
        },
        {
          "internalType": "string",
          "name": "locationCity",
          "type": "string"
        },
        {
          "internalType": "uint256",
          "name": "areaSqm",
          "type": "uint256"
        },
        {
          "internalType": "string",
          "name": "nib",
          "type": "string"
        }
      ],
      "name": "mintLandCertificate",
      "outputs": [
        {
          "internalType": "uint256",
          "name": "",
          "type": "uint256"
        }
      ],
      "stateMutability": "nonpayable",
      "type": "function"
    },
    {
      "inputs": [],
      "name": "name",
      "outputs": [
        {
          "internalType": "string",
          "name": "",
          "type": "string"
        }
      ],
      "stateMutability": "view",
      "type": "function"
    },
    {
      "inputs": [
        {
          "internalType": "uint256",
          "name": "tokenId",
          "type": "uint256"
        }
      ],
      "name": "ownerOf",
      "outputs": [
        {
          "internalType": "address",
          "name": "",
          "type": "address"
        }
      ],
      "stateMutability": "view",
      "type": "function"
    },
    {
      "inputs": [
        {
          "internalType": "address",
          "name": "from",
          "type": "address"
        },
        {
          "internalType": "address",
          "name": "to",
          "type": "address"
        },
        {
          "internalType": "uint256",
          "name": "tokenId",
          "type": "uint256"
        }
      ],
      "name": "safeTransferFrom",
      "outputs": [],
      "stateMutability": "nonpayable",
      "type": "function"
    },
    {
      "inputs": [
        {
          "internalType": "address",
          "name": "from",
          "type": "address"
        },
        {
          "internalType": "address",
          "name": "to",
          "type": "address"
        },
        {
          "internalType": "uint256",
          "name": "tokenId",
          "type": "uint256"
        },
        {
          "internalType": "bytes",
          "name": "data",
          "type": "bytes"
        }
      ],
      "name": "safeTransferFrom",
      "outputs": [],
      "stateMutability": "nonpayable",
      "type": "function"
    },
    {
      "inputs": [
        {
          "internalType": "address",
          "name": "operator",
          "type": "address"
        },
        {
          "internalType": "bool",
          "name": "approved",
          "type": "bool"
        }
      ],
      "name": "setApprovalForAll",
      "outputs": [],
      "stateMutability": "nonpayable",
      "type": "function"
    },
    {
      "inputs": [
        {
          "internalType": "bytes4",
          "name": "interfaceId",
          "type": "bytes4"
        }
      ],
      "name": "supportsInterface",
      "outputs": [
        {
          "internalType": "bool",
          "name": "",
          "type": "bool"
        }
      ],
      "stateMutability": "view",
      "type": "function"
    },
    {
      "inputs": [],
      "name": "symbol",
      "outputs": [
        {
          "internalType": "string",
          "name": "",
          "type": "string"
        }
      ],
      "stateMutability": "view",
      "type": "function"
    },
    {
      "inputs": [
        {
          "internalType": "uint256",
          "name": "tokenId",
          "type": "uint256"
        }
      ],
      "name": "tokenURI",
      "outputs": [
        {
          "internalType": "string",
          "name": "",
          "type": "string"
        }
      ],
      "stateMutability": "view",
      "type": "function"
    },
    {
      "inputs": [
        {
          "internalType": "address",
          "name": "from",
          "type": "address"
        },
        {
          "internalType": "address",
          "name": "to",
          "type": "address"
        },
        {
          "internalType": "uint256",
          "name": "tokenId",
          "type": "uint256"
        }
      ],
      "name": "transferFrom",
      "outputs": [],
      "stateMutability": "nonpayable",
      "type": "function"
    },
    {
      "inputs": [
        {
          "internalType": "uint256",
          "name": "id",
          "type": "uint256"
        },
        {
          "internalType": "bool",
          "name": "verified",
          "type": "bool"
        }
      ],
      "name": "updateVerificationStatus",
      "outputs": [],
      "stateMutability": "nonpayable",
      "type": "function"
    }
  ],
  "transactionHash": "0x0689f971121a61b5da3a0143b7206d4c00cbb353489f994a010fbd47730f559d",
  "args": [],
  "numDeployments": 1,
  "solcInputHash": "e83b39a47c97e5f259dc3629c7a4c5d2",
  "bytecode": "0x60c0604052601b60809081527f446563656e7472616c697a6564204c616e64205265676973747279000000000060a05260079061003c908261016b565b5034801561004957600080fd5b506040518060400160405280600e81526020016d15195c9c98599bdc9b5853185b9960921b815250604051806040016040528060048152602001631513139160e21b815250816000908161009d919061016b565b5060016100aa828261016b565b5050336000908152600860205260409020805460ff1916600117905550610229565b634e487b7160e01b600052604160045260246000fd5b600181811c908216806100f657607f821691505b60208210810361011657634e487b7160e01b600052602260045260246000fd5b50919050565b601f82111561016657806000526020600020601f840160051c810160208510156101435750805b601f840160051c820191505b81811015610163576000815560010161014f565b50505b505050565b81516001600160401b03811115610184576101846100cc565b6101988161019284546100e2565b8461011c565b6020601f8211600181146101cc57600083156101b45750848201515b600019600385901b1c1916600184901b178455610163565b600084815260208120601f198516915b828110156101fc57878501518255602094850194600190920191016101dc565b508482101561021a5786840151600019600387901b60f8161c191681555b50505050600190811b01905550565b611c59806102386000396000f3fe608060405234801561001057600080fd5b50600436106101215760003560e01c806370a08231116100ad578063c87b56dd11610071578063c87b56dd14610294578063e8c674d8146102a7578063e985e9c5146102ba578063ef690cc0146102cd578063f320beac146102d557600080fd5b806370a0823114610225578063936a7f8a1461024657806395d89b4114610266578063a22cb4651461026e578063b88d4fde1461028157600080fd5b806323b872dd116100f457806323b872dd146101a357806342842e0e146101b6578063429b62e5146101c9578063543b1d4d146101ec5780636352211e1461021257600080fd5b806301ffc9a71461012657806306fdde031461014e578063081812fc14610163578063095ea7b31461018e575b600080fd5b610139610134366004611554565b6102e8565b60405190151581526020015b60405180910390f35b61015661033a565b60405161014591906115c1565b6101766101713660046115d4565b6103cc565b6040516001600160a01b039091168152602001610145565b6101a161019c366004611609565b6103f5565b005b6101a16101b1366004611633565b610404565b6101a16101c4366004611633565b610494565b6101396101d7366004611670565b60086020526000908152604090205460ff1681565b6101ff6101fa3660046115d4565b6104b4565b604051610145979695949392919061168b565b6101766102203660046115d4565b610712565b610238610233366004611670565b61071d565b604051908152602001610145565b6102596102543660046115d4565b610765565b60405161014591906116fb565b610156610a8d565b6101a161027c3660046117ae565b610a9c565b6101a161028f366004611871565b610aa7565b6101566102a23660046115d4565b610abe565b6102386102b536600461190d565b610b33565b6101396102c83660046119e6565b610cad565b610156610cdb565b6101a16102e3366004611a10565b610d69565b60006001600160e01b031982166380ac58cd60e01b148061031957506001600160e01b03198216635b5e139f60e01b145b8061033457506301ffc9a760e01b6001600160e01b03198316145b92915050565b60606000805461034990611a33565b80601f016020809104026020016040519081016040528092919081815260200182805461037590611a33565b80156103c25780601f10610397576101008083540402835291602001916103c2565b820191906000526020600020905b8154815290600101906020018083116103a557829003601f168201915b5050505050905090565b60006103d782610e63565b506000828152600460205260409020546001600160a01b0316610334565b610400828233610e9c565b5050565b6001600160a01b03821661043357604051633250574960e11b8152600060048201526024015b60405180910390fd5b6000610440838333610ea9565b9050836001600160a01b0316816001600160a01b03161461048e576040516364283d7b60e01b81526001600160a01b038086166004830152602482018490528216604482015260640161042a565b50505050565b6104af83838360405180602001604052806000815250610aa7565b505050565b600960205260009081526040902080546001820180549192916104d690611a33565b80601f016020809104026020016040519081016040528092919081815260200182805461050290611a33565b801561054f5780601f106105245761010080835404028352916020019161054f565b820191906000526020600020905b81548152906001019060200180831161053257829003601f168201915b50505050509080600201805461056490611a33565b80601f016020809104026020016040519081016040528092919081815260200182805461059090611a33565b80156105dd5780601f106105b2576101008083540402835291602001916105dd565b820191906000526020600020905b8154815290600101906020018083116105c057829003601f168201915b5050505050908060030180546105f290611a33565b80601f016020809104026020016040519081016040528092919081815260200182805461061e90611a33565b801561066b5780601f106106405761010080835404028352916020019161066b565b820191906000526020600020905b81548152906001019060200180831161064e57829003601f168201915b50505050509080600401549080600501805461068690611a33565b80601f01602080910402602001604051908101604052809291908181526020018280546106b290611a33565b80156106ff5780601f106106d4576101008083540402835291602001916106ff565b820191906000526020600020905b8154815290600101906020018083116106e257829003601f168201915b5050506006909301549192505060ff1687565b600061033482610e63565b60006001600160a01b038216610749576040516322718ad960e21b81526000600482015260240161042a565b506001600160a01b031660009081526003602052604090205490565b6107a76040518060e001604052806000815260200160608152602001606081526020016060815260200160008152602001606081526020016000151581525090565b6000828152600260205260409020546001600160a01b03166107fc5760405162461bcd60e51b815260206004820152600e60248201526d13185b99081b9bdd08195e1a5cdd60921b604482015260640161042a565b600960008381526020019081526020016000206040518060e00160405290816000820154815260200160018201805461083490611a33565b80601f016020809104026020016040519081016040528092919081815260200182805461086090611a33565b80156108ad5780601f10610882576101008083540402835291602001916108ad565b820191906000526020600020905b81548152906001019060200180831161089057829003601f168201915b505050505081526020016002820180546108c690611a33565b80601f01602080910402602001604051908101604052809291908181526020018280546108f290611a33565b801561093f5780601f106109145761010080835404028352916020019161093f565b820191906000526020600020905b81548152906001019060200180831161092257829003601f168201915b5050505050815260200160038201805461095890611a33565b80601f016020809104026020016040519081016040528092919081815260200182805461098490611a33565b80156109d15780601f106109a6576101008083540402835291602001916109d1565b820191906000526020600020905b8154815290600101906020018083116109b457829003601f168201915b50505050508152602001600482015481526020016005820180546109f490611a33565b80601f0160208091040260200160405190810160405280929190818152602001828054610a2090611a33565b8015610a6d5780601f10610a4257610100808354040283529160200191610a6d565b820191906000526020600020905b815481529060010190602001808311610a5057829003601f168201915b50505091835250506006919091015460ff16151560209091015292915050565b60606001805461034990611a33565b610400338383610fa2565b610ab2848484610404565b61048e84848484611041565b6060610ac982610e63565b506000610ae160408051602081019091526000815290565b90506000815111610b015760405180602001604052806000815250610b2c565b80610b0b8461116a565b604051602001610b1c929190611a6d565b6040516020818303038152906040525b9392505050565b3360009081526008602052604081205460ff16610b7e5760405162461bcd60e51b81526020600482015260096024820152682737ba1030b236b4b760b91b604482015260640161042a565b6000600660008154610b8f90611a9c565b91829055506040805160e08101825282815260208082018b81528284018b9052606083018a90526080830189905260a08301889052600060c084018190528581526009909252929020815181559151929350916001820190610bf19082611b0a565b5060408201516002820190610c069082611b0a565b5060608201516003820190610c1b9082611b0a565b506080820151600482015560a08201516005820190610c3a9082611b0a565b5060c091909101516006909101805460ff1916911515919091179055610c6088826111fd565b876001600160a01b0316817fc90e02727a6d339588cdd8fd77a925792b5b9c252ad61b67e234e5fde620e2bb85604051610c9a91906115c1565b60405180910390a3979650505050505050565b6001600160a01b03918216600090815260056020908152604080832093909416825291909152205460ff1690565b60078054610ce890611a33565b80601f0160208091040260200160405190810160405280929190818152602001828054610d1490611a33565b8015610d615780601f10610d3657610100808354040283529160200191610d61565b820191906000526020600020905b815481529060010190602001808311610d4457829003601f168201915b505050505081565b3360009081526008602052604090205460ff16610db45760405162461bcd60e51b81526020600482015260096024820152682737ba1030b236b4b760b91b604482015260640161042a565b6000828152600260205260409020546001600160a01b0316610e095760405162461bcd60e51b815260206004820152600e60248201526d13185b99081b9bdd08195e1a5cdd60921b604482015260640161042a565b600082815260096020908152604091829020600601805460ff1916841515908117909155915191825283917f9a5939a701e315312ffd484f4e922faaa665911da46327fa44cf9991529200e7910160405180910390a25050565b6000818152600260205260408120546001600160a01b03168061033457604051637e27328960e01b81526004810184905260240161042a565b6104af8383836001611217565b6000828152600260205260408120546001600160a01b0390811690831615610ed657610ed681848661131d565b6001600160a01b03811615610f1457610ef3600085600080611217565b6001600160a01b038116600090815260036020526040902080546000190190555b6001600160a01b03851615610f43576001600160a01b0385166000908152600360205260409020805460010190555b60008481526002602052604080822080546001600160a01b0319166001600160a01b0389811691821790925591518793918516917fddf252ad1be2c89b69c2b068fc378daa952ba7f163c4a11628f55a4df523b3ef91a4949350505050565b6001600160a01b038216610fd457604051630b61174360e31b81526001600160a01b038316600482015260240161042a565b6001600160a01b03838116600081815260056020908152604080832094871680845294825291829020805460ff191686151590811790915591519182527f17307eab39ab6107e8899845ad3d59bd9653f200f220920489ca2b5937696c31910160405180910390a3505050565b6001600160a01b0383163b1561048e57604051630a85bd0160e11b81526001600160a01b0384169063150b7a0290611083903390889087908790600401611bc9565b6020604051808303816000875af19250505080156110be575060408051601f3d908101601f191682019092526110bb91810190611c06565b60015b611127573d8080156110ec576040519150601f19603f3d011682016040523d82523d6000602084013e6110f1565b606091505b50805160000361111f57604051633250574960e11b81526001600160a01b038516600482015260240161042a565b805181602001fd5b6001600160e01b03198116630a85bd0160e11b1461116357604051633250574960e11b81526001600160a01b038516600482015260240161042a565b5050505050565b6060600061117783611381565b600101905060008167ffffffffffffffff811115611197576111976117e1565b6040519080825280601f01601f1916602001820160405280156111c1576020820181803683370190505b5090508181016020015b600019016f181899199a1a9b1b9c1cb0b131b232b360811b600a86061a8153600a85049450846111cb57509392505050565b610400828260405180602001604052806000815250611459565b808061122b57506001600160a01b03821615155b156112ed57600061123b84610e63565b90506001600160a01b038316158015906112675750826001600160a01b0316816001600160a01b031614155b801561127a57506112788184610cad565b155b156112a35760405163a9fbf51f60e01b81526001600160a01b038416600482015260240161042a565b81156112eb5783856001600160a01b0316826001600160a01b03167f8c5be1e5ebec7d5bd14f71427d1e84f3dd0314c0f7b2291e5b200ac8c7c3b92560405160405180910390a45b505b5050600090815260046020526040902080546001600160a01b0319166001600160a01b0392909216919091179055565b611328838383611470565b6104af576001600160a01b03831661135657604051637e27328960e01b81526004810182905260240161042a565b60405163177e802f60e01b81526001600160a01b03831660048201526024810182905260440161042a565b60008072184f03e93ff9f4daa797ed6e38ed64bf6a1f0160401b83106113c05772184f03e93ff9f4daa797ed6e38ed64bf6a1f0160401b830492506040015b6d04ee2d6d415b85acef810000000083106113ec576d04ee2d6d415b85acef8100000000830492506020015b662386f26fc10000831061140a57662386f26fc10000830492506010015b6305f5e1008310611422576305f5e100830492506008015b612710831061143657612710830492506004015b60648310611448576064830492506002015b600a83106103345760010192915050565b61146383836114d6565b6104af6000848484611041565b60006001600160a01b038316158015906114ce5750826001600160a01b0316846001600160a01b031614806114aa57506114aa8484610cad565b806114ce57506000828152600460205260409020546001600160a01b038481169116145b949350505050565b6001600160a01b03821661150057604051633250574960e11b81526000600482015260240161042a565b600061150e83836000610ea9565b90506001600160a01b038116156104af576040516339e3563760e11b81526000600482015260240161042a565b6001600160e01b03198116811461155157600080fd5b50565b60006020828403121561156657600080fd5b8135610b2c8161153b565b60005b8381101561158c578181015183820152602001611574565b50506000910152565b600081518084526115ad816020860160208601611571565b601f01601f19169290920160200192915050565b602081526000610b2c6020830184611595565b6000602082840312156115e657600080fd5b5035919050565b80356001600160a01b038116811461160457600080fd5b919050565b6000806040838503121561161c57600080fd5b611625836115ed565b946020939093013593505050565b60008060006060848603121561164857600080fd5b611651846115ed565b925061165f602085016115ed565b929592945050506040919091013590565b60006020828403121561168257600080fd5b610b2c826115ed565b87815260e0602082015260006116a460e0830189611595565b82810360408401526116b68189611595565b905082810360608401526116ca8188611595565b905085608084015282810360a08401526116e48186611595565b91505082151560c083015298975050505050505050565b60208152815160208201526000602083015160e06040840152611722610100840182611595565b90506040840151601f1984830301606085015261173f8282611595565b9150506060840151601f1984830301608085015261175d8282611595565b915050608084015160a084015260a0840151601f198483030160c08501526117858282611595565b91505060c0840151151560e08401528091505092915050565b8035801515811461160457600080fd5b600080604083850312156117c157600080fd5b6117ca836115ed565b91506117d86020840161179e565b90509250929050565b634e487b7160e01b600052604160045260246000fd5b60008067ffffffffffffffff841115611812576118126117e1565b50604051601f19601f85018116603f0116810181811067ffffffffffffffff82111715611841576118416117e1565b60405283815290508082840185101561185957600080fd5b83836020830137600060208583010152509392505050565b6000806000806080858703121561188757600080fd5b611890856115ed565b935061189e602086016115ed565b925060408501359150606085013567ffffffffffffffff8111156118c157600080fd5b8501601f810187136118d257600080fd5b6118e1878235602084016117f7565b91505092959194509250565b600082601f8301126118fe57600080fd5b610b2c838335602085016117f7565b60008060008060008060c0878903121561192657600080fd5b61192f876115ed565b9550602087013567ffffffffffffffff81111561194b57600080fd5b61195789828a016118ed565b955050604087013567ffffffffffffffff81111561197457600080fd5b61198089828a016118ed565b945050606087013567ffffffffffffffff81111561199d57600080fd5b6119a989828a016118ed565b9350506080870135915060a087013567ffffffffffffffff8111156119cd57600080fd5b6119d989828a016118ed565b9150509295509295509295565b600080604083850312156119f957600080fd5b611a02836115ed565b91506117d8602084016115ed565b60008060408385031215611a2357600080fd5b823591506117d86020840161179e565b600181811c90821680611a4757607f821691505b602082108103611a6757634e487b7160e01b600052602260045260246000fd5b50919050565b60008351611a7f818460208801611571565b835190830190611a93818360208801611571565b01949350505050565b600060018201611abc57634e487b7160e01b600052601160045260246000fd5b5060010190565b601f8211156104af57806000526020600020601f840160051c81016020851015611aea5750805b601f840160051c820191505b818110156111635760008155600101611af6565b815167ffffffffffffffff811115611b2457611b246117e1565b611b3881611b328454611a33565b84611ac3565b6020601f821160018114611b6c5760008315611b545750848201515b600019600385901b1c1916600184901b178455611163565b600084815260208120601f198516915b82811015611b9c5787850151825560209485019460019092019101611b7c565b5084821015611bba5786840151600019600387901b60f8161c191681555b50505050600190811b01905550565b6001600160a01b0385811682528416602082015260408101839052608060608201819052600090611bfc90830184611595565b9695505050505050565b600060208284031215611c1857600080fd5b8151610b2c8161153b56fea264697066735822122031ca1d363eb6178c5bec69b57c7b274f790d5b92a0bde8addc992655a371d06c64736f6c634300081e0033",
  "devdoc": {
    "details": "Core MVP for Terraforma Indonesian Land Registry. Target Chain: Monad Testnet (Chain ID: 10143). Benefit: Monad parallel execution → instant land title verification & high throughput. No contract changes needed for Monad optimstic concurrency.",
    "errors": {
      "ERC721IncorrectOwner(address,uint256,address)": [
        {
          "details": "Indicates an error related to the ownership over a particular token. Used in transfers.",
          "params": {
            "owner": "Address of the current owner of a token.",
            "sender": "Address whose tokens are being transferred.",
            "tokenId": "Identifier number of a token."
          }
        }
      ],
      "ERC721InsufficientApproval(address,uint256)": [
        {
          "details": "Indicates a failure with the `operator`’s approval. Used in transfers.",
          "params": {
            "operator": "Address that may be allowed to operate on tokens without being their owner.",
            "tokenId": "Identifier number of a token."
          }
        }
      ],
      "ERC721InvalidApprover(address)": [
        {
          "details": "Indicates a failure with the `approver` of a token to be approved. Used in approvals.",
          "params": {
            "approver": "Address initiating an approval operation."
          }
        }
      ],
      "ERC721InvalidOperator(address)": [
        {
          "details": "Indicates a failure with the `operator` to be approved. Used in approvals.",
          "params": {
            "operator": "Address that may be allowed to operate on tokens without being their owner."
          }
        }
      ],
      "ERC721InvalidOwner(address)": [
        {
          "details": "Indicates that an address can't be an owner. For example, `address(0)` is a forbidden owner in EIP-20. Used in balance queries.",
          "params": {
            "owner": "Address of the current owner of a token."
          }
        }
      ],
      "ERC721InvalidReceiver(address)": [
        {
          "details": "Indicates a failure with the token `receiver`. Used in transfers.",
          "params": {
            "receiver": "Address to which tokens are being transferred."
          }
        }
      ],
      "ERC721InvalidSender(address)": [
        {
          "details": "Indicates a failure with the token `sender`. Used in transfers.",
          "params": {
            "sender": "Address whose tokens are being transferred."
          }
        }
      ],
      "ERC721NonexistentToken(uint256)": [
        {
          "details": "Indicates a `tokenId` whose `owner` is the zero address.",
          "params": {
            "tokenId": "Identifier number of a token."
          }
        }
      ]
    },
    "events": {
      "Approval(address,address,uint256)": {
        "details": "Emitted when `owner` enables `approved` to manage the `tokenId` token."
      },
      "ApprovalForAll(address,address,bool)": {
        "details": "Emitted when `owner` enables or disables (`approved`) `operator` to manage all of its assets."
      },
      "Transfer(address,address,uint256)": {
        "details": "Emitted when `tokenId` token is transferred from `from` to `to`."
      }
    },
    "kind": "dev",
    "methods": {
      "approve(address,uint256)": {
        "details": "See {IERC721-approve}."
      },
      "balanceOf(address)": {
        "details": "See {IERC721-balanceOf}."
      },
      "getApproved(uint256)": {
        "details": "See {IERC721-getApproved}."
      },
      "isApprovedForAll(address,address)": {
        "details": "See {IERC721-isApprovedForAll}."
      },
      "mintLandCertificate(address,string,string,string,uint256,string)": {
        "details": "Mint new land cert. Monad async execution → UI will see tx in 3 blocks (~3s)."
      },
      "name()": {
        "details": "See {IERC721Metadata-name}."
      },
      "ownerOf(uint256)": {
        "details": "See {IERC721-ownerOf}."
      },
      "safeTransferFrom(address,address,uint256)": {
        "details": "See {IERC721-safeTransferFrom}."
      },
      "safeTransferFrom(address,address,uint256,bytes)": {
        "details": "See {IERC721-safeTransferFrom}."
      },
      "setApprovalForAll(address,bool)": {
        "details": "See {IERC721-setApprovalForAll}."
      },
      "supportsInterface(bytes4)": {
        "details": "See {IERC165-supportsInterface}."
      },
      "symbol()": {
        "details": "See {IERC721Metadata-symbol}."
      },
      "tokenURI(uint256)": {
        "details": "See {IERC721Metadata-tokenURI}."
      },
      "transferFrom(address,address,uint256)": {
        "details": "See {IERC721-transferFrom}."
      }
    },
    "title": "TerraformaLand",
    "version": 1
  },
  "userdoc": {
    "kind": "user",
    "methods": {},
    "version": 1
  },
  "storageLayout": {
    "storage": [
      {
        "astId": 169,
        "contract": "contracts/TerraformaLand.sol:TerraformaLand",
        "label": "_name",
        "offset": 0,
        "slot": "0",
        "type": "t_string_storage"
      },
      {
        "astId": 171,
        "contract": "contracts/TerraformaLand.sol:TerraformaLand",
        "label": "_symbol",
        "offset": 0,
        "slot": "1",
        "type": "t_string_storage"
      },
      {
        "astId": 175,
        "contract": "contracts/TerraformaLand.sol:TerraformaLand",
        "label": "_owners",
        "offset": 0,
        "slot": "2",
        "type": "t_mapping(t_uint256,t_address)"
      },
      {
        "astId": 179,
        "contract": "contracts/TerraformaLand.sol:TerraformaLand",
        "label": "_balances",
        "offset": 0,
        "slot": "3",
        "type": "t_mapping(t_address,t_uint256)"
      },
      {
        "astId": 183,
        "contract": "contracts/TerraformaLand.sol:TerraformaLand",
        "label": "_tokenApprovals",
        "offset": 0,
        "slot": "4",
        "type": "t_mapping(t_uint256,t_address)"
      },
      {
        "astId": 189,
        "contract": "contracts/TerraformaLand.sol:TerraformaLand",
        "label": "_operatorApprovals",
        "offset": 0,
        "slot": "5",
        "type": "t_mapping(t_address,t_mapping(t_address,t_bool))"
      },
      {
        "astId": 2796,
        "contract": "contracts/TerraformaLand.sol:TerraformaLand",
        "label": "_nextTokenId",
        "offset": 0,
        "slot": "6",
        "type": "t_uint256"
      },
      {
        "astId": 2799,
        "contract": "contracts/TerraformaLand.sol:TerraformaLand",
        "label": "greeting",
        "offset": 0,
        "slot": "7",
        "type": "t_string_storage"
      },
      {
        "astId": 2818,
        "contract": "contracts/TerraformaLand.sol:TerraformaLand",
        "label": "admins",
        "offset": 0,
        "slot": "8",
        "type": "t_mapping(t_address,t_bool)"
      },
      {
        "astId": 2823,
        "contract": "contracts/TerraformaLand.sol:TerraformaLand",
        "label": "landPlots",
        "offset": 0,
        "slot": "9",
        "type": "t_mapping(t_uint256,t_struct(LandPlot)2814_storage)"
      }
    ],
    "types": {
      "t_address": {
        "encoding": "inplace",
        "label": "address",
        "numberOfBytes": "20"
      },
      "t_bool": {
        "encoding": "inplace",
        "label": "bool",
        "numberOfBytes": "1"
      },
      "t_mapping(t_address,t_bool)": {
        "encoding": "mapping",
        "key": "t_address",
        "label": "mapping(address => bool)",
        "numberOfBytes": "32",
        "value": "t_bool"
      },
      "t_mapping(t_address,t_mapping(t_address,t_bool))": {
        "encoding": "mapping",
        "key": "t_address",
        "label": "mapping(address => mapping(address => bool))",
        "numberOfBytes": "32",
        "value": "t_mapping(t_address,t_bool)"
      },
      "t_mapping(t_address,t_uint256)": {
        "encoding": "mapping",
        "key": "t_address",
        "label": "mapping(address => uint256)",
        "numberOfBytes": "32",
        "value": "t_uint256"
      },
      "t_mapping(t_uint256,t_address)": {
        "encoding": "mapping",
        "key": "t_uint256",
        "label": "mapping(uint256 => address)",
        "numberOfBytes": "32",
        "value": "t_address"
      },
      "t_mapping(t_uint256,t_struct(LandPlot)2814_storage)": {
        "encoding": "mapping",
        "key": "t_uint256",
        "label": "mapping(uint256 => struct TerraformaLand.LandPlot)",
        "numberOfBytes": "32",
        "value": "t_struct(LandPlot)2814_storage"
      },
      "t_string_storage": {
        "encoding": "bytes",
        "label": "string",
        "numberOfBytes": "32"
      },
      "t_struct(LandPlot)2814_storage": {
        "encoding": "inplace",
        "label": "struct TerraformaLand.LandPlot",
        "members": [
          {
            "astId": 2801,
            "contract": "contracts/TerraformaLand.sol:TerraformaLand",
            "label": "id",
            "offset": 0,
            "slot": "0",
            "type": "t_uint256"
          },
          {
            "astId": 2803,
            "contract": "contracts/TerraformaLand.sol:TerraformaLand",
            "label": "geoJSONHash",
            "offset": 0,
            "slot": "1",
            "type": "t_string_storage"
          },
          {
            "astId": 2805,
            "contract": "contracts/TerraformaLand.sol:TerraformaLand",
            "label": "locationProvince",
            "offset": 0,
            "slot": "2",
            "type": "t_string_storage"
          },
          {
            "astId": 2807,
            "contract": "contracts/TerraformaLand.sol:TerraformaLand",
            "label": "locationCity",
            "offset": 0,
            "slot": "3",
            "type": "t_string_storage"
          },
          {
            "astId": 2809,
            "contract": "contracts/TerraformaLand.sol:TerraformaLand",
            "label": "areaSqm",
            "offset": 0,
            "slot": "4",
            "type": "t_uint256"
          },
          {
            "astId": 2811,
            "contract": "contracts/TerraformaLand.sol:TerraformaLand",
            "label": "NIB_NomorIdentitasBidang",
            "offset": 0,
            "slot": "5",
            "type": "t_string_storage"
          },
          {
            "astId": 2813,
            "contract": "contracts/TerraformaLand.sol:TerraformaLand",
            "label": "isVerified",
            "offset": 0,
            "slot": "6",
            "type": "t_bool"
          }
        ],
        "numberOfBytes": "224"
      },
      "t_uint256": {
        "encoding": "inplace",
        "label": "uint256",
        "numberOfBytes": "32"
      }
    }
  }
}