{
  "address": "0x11E0272Ed8f7A882c766f36d48543102dE99ec09",
  "abi": [
    {
      "inputs": [],
      "stateMutability": "nonpayable",
      "type": "constructor"
    },
    {
      "inputs": [
        {
          "internalType": "address",
          "name": "sender",
          "type": "address"
        },
        {
          "internalType": "uint256",
          "name": "tokenId",
          "type": "uint256"
        },
        {
          "internalType": "address",
          "name": "owner",
          "type": "address"
        }
      ],
      "name": "ERC721IncorrectOwner",
      "type": "error"
    },
    {
      "inputs": [
        {
          "internalType": "address",
          "name": "operator",
          "type": "address"
        },
        {
          "internalType": "uint256",
          "name": "tokenId",
          "type": "uint256"
        }
      ],
      "name": "ERC721InsufficientApproval",
      "type": "error"
    },
    {
      "inputs": [
        {
          "internalType": "address",
          "name": "approver",
          "type": "address"
        }
      ],
      "name": "ERC721InvalidApprover",
      "type": "error"
    },
    {
      "inputs": [
        {
          "internalType": "address",
          "name": "operator",
          "type": "address"
        }
      ],
      "name": "ERC721InvalidOperator",
      "type": "error"
    },
    {
      "inputs": [
        {
          "internalType": "address",
          "name": "owner",
          "type": "address"
        }
      ],
      "name": "ERC721InvalidOwner",
      "type": "error"
    },
    {
      "inputs": [
        {
          "internalType": "address",
          "name": "receiver",
          "type": "address"
        }
      ],
      "name": "ERC721InvalidReceiver",
      "type": "error"
    },
    {
      "inputs": [
        {
          "internalType": "address",
          "name": "sender",
          "type": "address"
        }
      ],
      "name": "ERC721InvalidSender",
      "type": "error"
    },
    {
      "inputs": [
        {
          "internalType": "uint256",
          "name": "tokenId",
          "type": "uint256"
        }
      ],
      "name": "ERC721NonexistentToken",
      "type": "error"
    },
    {
      "anonymous": false,
      "inputs": [
        {
          "indexed": true,
          "internalType": "address",
          "name": "owner",
          "type": "address"
        },
        {
          "indexed": true,
          "internalType": "address",
          "name": "approved",
          "type": "address"
        },
        {
          "indexed": true,
          "internalType": "uint256",
          "name": "tokenId",
          "type": "uint256"
        }
      ],
      "name": "Approval",
      "type": "event"
    },
    {
      "anonymous": false,
      "inputs": [
        {
          "indexed": true,
          "internalType": "address",
          "name": "owner",
          "type": "address"
        },
        {
          "indexed": true,
          "internalType": "address",
          "name": "operator",
          "type": "address"
        },
        {
          "indexed": false,
          "internalType": "bool",
          "name": "approved",
          "type": "bool"
        }
      ],
      "name": "ApprovalForAll",
      "type": "event"
    },
    {
      "anonymous": false,
      "inputs": [
        {
          "indexed": true,
          "internalType": "uint256",
          "name": "tokenId",
          "type": "uint256"
        },
        {
          "indexed": true,
          "internalType": "address",
          "name": "owner",
          "type": "address"
        },
        {
          "indexed": false,
          "internalType": "string",
          "name": "nib",
          "type": "string"
        }
      ],
      "name": "LandMinted",
      "type": "event"
    },
    {
      "anonymous": false,
      "inputs": [
        {
          "indexed": true,
          "internalType": "uint256",
          "name": "tokenId",
          "type": "uint256"
        },
        {
          "indexed": false,
          "internalType": "uint256",
          "name": "priceWei",
          "type": "uint256"
        }
      ],
      "name": "PriceUpdated",
      "type": "event"
    },
    {
      "anonymous": false,
      "inputs": [
        {
          "indexed": true,
          "internalType": "address",
          "name": "from",
          "type": "address"
        },
        {
          "indexed": true,
          "internalType": "address",
          "name": "to",
          "type": "address"
        },
        {
          "indexed": true,
          "internalType": "uint256",
          "name": "tokenId",
          "type": "uint256"
        }
      ],
      "name": "Transfer",
      "type": "event"
    },
    {
      "anonymous": false,
      "inputs": [
        {
          "indexed": true,
          "internalType": "uint256",
          "name": "tokenId",
          "type": "uint256"
        },
        {
          "indexed": false,
          "internalType": "bool",
          "name": "isVerified",
          "type": "bool"
        }
      ],
      "name": "VerificationUpdated",
      "type": "event"
    },
    {
      "inputs": [
        {
          "internalType": "address",
          "name": "",
          "type": "address"
        }
      ],
      "name": "admins",
      "outputs": [
        {
          "internalType": "bool",
          "name": "",
          "type": "bool"
        }
      ],
      "stateMutability": "view",
      "type": "function"
    },
    {
      "inputs": [
        {
          "internalType": "address",
          "name": "to",
          "type": "address"
        },
        {
          "internalType": "uint256",
          "name": "tokenId",
          "type": "uint256"
        }
      ],
      "name": "approve",
      "outputs": [],
      "stateMutability": "nonpayable",
      "type": "function"
    },
    {
      "inputs": [
        {
          "internalType": "address",
          "name": "owner",
          "type": "address"
        }
      ],
      "name": "balanceOf",
      "outputs": [
        {
          "internalType": "uint256",
          "name": "",
          "type": "uint256"
        }
      ],
      "stateMutability": "view",
      "type": "function"
    },
    {
      "inputs": [
        {
          "internalType": "uint256",
          "name": "tokenId",
          "type": "uint256"
        }
      ],
      "name": "getApproved",
      "outputs": [
        {
          "internalType": "address",
          "name": "",
          "type": "address"
        }
      ],
      "stateMutability": "view",
      "type": "function"
    },
    {
      "inputs": [
        {
          "internalType": "uint256",
          "name": "id",
          "type": "uint256"
        }
      ],
      "name": "getLandPlotDetails",
      "outputs": [
        {
          "components": [
            {
              "internalType": "uint256",
              "name": "id",
              "type": "uint256"
            },
            {
              "internalType": "string",
              "name": "geoJSONHash",
              "type": "string"
            },
            {
              "internalType": "string",
              "name": "locationProvince",
              "type": "string"
            },
            {
              "internalType": "string",
              "name": "locationCity",
              "type": "string"
            },
            {
              "internalType": "uint256",
              "name": "areaSqm",
              "type": "uint256"
            },
            {
              "internalType": "string",
              "name": "NIB_NomorIdentitasBidang",
              "type": "string"
            },
            {
              "internalType": "bool",
              "name": "isVerified",
              "type": "bool"
            },
            {
              "internalType": "uint256",
              "name": "priceWei",
              "type": "uint256"
            }
          ],
          "internalType": "struct TerraformaLand.LandPlot",
          "name": "",
          "type": "tuple"
        }
      ],
      "stateMutability": "view",
      "type": "function"
    },
    {
      "inputs": [],
      "name": "greeting",
      "outputs": [
        {
          "internalType": "string",
          "name": "",
          "type": "string"
        }
      ],
      "stateMutability": "view",
      "type": "function"
    },
    {
      "inputs": [
        {
          "internalType": "address",
          "name": "owner",
          "type": "address"
        },
        {
          "internalType": "address",
          "name": "operator",
          "type": "address"
        }
      ],
      "name": "isApprovedForAll",
      "outputs": [
        {
          "internalType": "bool",
          "name": "",
          "type": "bool"
        }
      ],
      "stateMutability": "view",
      "type": "function"
    },
    {
      "inputs": [
        {
          "internalType": "uint256",
          "name": "",
          "type": "uint256"
        }
      ],
      "name": "landPlots",
      "outputs": [
        {
          "internalType": "uint256",
          "name": "id",
          "type": "uint256"
        },
        {
          "internalType": "string",
          "name": "geoJSONHash",
          "type": "string"
        },
        {
          "internalType": "string",
          "name": "locationProvince",
          "type": "string"
        },
        {
          "internalType": "string",
          "name": "locationCity",
          "type": "string"
        },
        {
          "internalType": "uint256",
          "name": "areaSqm",
          "type": "uint256"
        },
        {
          "internalType": "string",
          "name": "NIB_NomorIdentitasBidang",
          "type": "string"
        },
        {
          "internalType": "bool",
          "name": "isVerified",
          "type": "bool"
        },
        {
          "internalType": "uint256",
          "name": "priceWei",
          "type": "uint256"
        }
      ],
      "stateMutability": "view",
      "type": "function"
    },
    {
      "inputs": [
        {
          "internalType": "address",
          "name": "owner",
          "type": "address"
        },
        {
          "internalType": "string",
          "name": "geoJSONHash",
          "type": "string"
        },
        {
          "internalType": "string",
          "name": "locationProvince",
          "type": "string"
        },
        {
          "internalType": "string",
          "name": "locationCity",
          "type": "string"
        },
        {
          "internalType": "uint256",
          "name": "areaSqm",
          "type": "uint256"
        },
        {
          "internalType": "string",
          "name": "nib",
          "type": "string"
        },
        {
          "internalType": "uint256",
          "name": "priceWei",
          "type": "uint256"
        }
      ],
      "name": "mintLandCertificate",
      "outputs": [
        {
          "internalType": "uint256",
          "name": "",
          "type": "uint256"
        }
      ],
      "stateMutability": "nonpayable",
      "type": "function"
    },
    {
      "inputs": [],
      "name": "name",
      "outputs": [
        {
          "internalType": "string",
          "name": "",
          "type": "string"
        }
      ],
      "stateMutability": "view",
      "type": "function"
    },
    {
      "inputs": [
        {
          "internalType": "uint256",
          "name": "tokenId",
          "type": "uint256"
        }
      ],
      "name": "ownerOf",
      "outputs": [
        {
          "internalType": "address",
          "name": "",
          "type": "address"
        }
      ],
      "stateMutability": "view",
      "type": "function"
    },
    {
      "inputs": [
        {
          "internalType": "address",
          "name": "from",
          "type": "address"
        },
        {
          "internalType": "address",
          "name": "to",
          "type": "address"
        },
        {
          "internalType": "uint256",
          "name": "tokenId",
          "type": "uint256"
        }
      ],
      "name": "safeTransferFrom",
      "outputs": [],
      "stateMutability": "nonpayable",
      "type": "function"
    },
    {
      "inputs": [
        {
          "internalType": "address",
          "name": "from",
          "type": "address"
        },
        {
          "internalType": "address",
          "name": "to",
          "type": "address"
        },
        {
          "internalType": "uint256",
          "name": "tokenId",
          "type": "uint256"
        },
        {
          "internalType": "bytes",
          "name": "data",
          "type": "bytes"
        }
      ],
      "name": "safeTransferFrom",
      "outputs": [],
      "stateMutability": "nonpayable",
      "type": "function"
    },
    {
      "inputs": [
        {
          "internalType": "address",
          "name": "operator",
          "type": "address"
        },
        {
          "internalType": "bool",
          "name": "approved",
          "type": "bool"
        }
      ],
      "name": "setApprovalForAll",
      "outputs": [],
      "stateMutability": "nonpayable",
      "type": "function"
    },
    {
      "inputs": [
        {
          "internalType": "bytes4",
          "name": "interfaceId",
          "type": "bytes4"
        }
      ],
      "name": "supportsInterface",
      "outputs": [
        {
          "internalType": "bool",
          "name": "",
          "type": "bool"
        }
      ],
      "stateMutability": "view",
      "type": "function"
    },
    {
      "inputs": [],
      "name": "symbol",
      "outputs": [
        {
          "internalType": "string",
          "name": "",
          "type": "string"
        }
      ],
      "stateMutability": "view",
      "type": "function"
    },
    {
      "inputs": [
        {
          "internalType": "uint256",
          "name": "tokenId",
          "type": "uint256"
        }
      ],
      "name": "tokenURI",
      "outputs": [
        {
          "internalType": "string",
          "name": "",
          "type": "string"
        }
      ],
      "stateMutability": "view",
      "type": "function"
    },
    {
      "inputs": [
        {
          "internalType": "address",
          "name": "from",
          "type": "address"
        },
        {
          "internalType": "address",
          "name": "to",
          "type": "address"
        },
        {
          "internalType": "uint256",
          "name": "tokenId",
          "type": "uint256"
        }
      ],
      "name": "transferFrom",
      "outputs": [],
      "stateMutability": "nonpayable",
      "type": "function"
    },
    {
      "inputs": [
        {
          "internalType": "uint256",
          "name": "id",
          "type": "uint256"
        },
        {
          "internalType": "uint256",
          "name": "priceWei",
          "type": "uint256"
        }
      ],
      "name": "updatePrice",
      "outputs": [],
      "stateMutability": "nonpayable",
      "type": "function"
    },
    {
      "inputs": [
        {
          "internalType": "uint256",
          "name": "id",
          "type": "uint256"
        },
        {
          "internalType": "bool",
          "name": "verified",
          "type": "bool"
        }
      ],
      "name": "updateVerificationStatus",
      "outputs": [],
      "stateMutability": "nonpayable",
      "type": "function"
    }
  ],
  "transactionHash": "0xfdfa8778e3d1ae21283e5ec4b602be3924a024c5edbfcafaf47f9690cd673323",
  "args": [],
  "numDeployments": 2,
  "solcInputHash": "b8797d8d0c60c7209eef89fdfc015b96",
  "bytecode": "0x60c0604052601b60809081527f446563656e7472616c697a6564204c616e64205265676973747279000000000060a05260079061003c908261016b565b5034801561004957600080fd5b506040518060400160405280600e81526020016d15195c9c98599bdc9b5853185b9960921b815250604051806040016040528060048152602001631513139160e21b815250816000908161009d919061016b565b5060016100aa828261016b565b5050336000908152600860205260409020805460ff1916600117905550610229565b634e487b7160e01b600052604160045260246000fd5b600181811c908216806100f657607f821691505b60208210810361011657634e487b7160e01b600052602260045260246000fd5b50919050565b601f82111561016657806000526020600020601f840160051c810160208510156101435750805b601f840160051c820191505b81811015610163576000815560010161014f565b50505b505050565b81516001600160401b03811115610184576101846100cc565b6101988161019284546100e2565b8461011c565b6020601f8211600181146101cc57600083156101b45750848201515b600019600385901b1c1916600184901b178455610163565b600084815260208120601f198516915b828110156101fc57878501518255602094850194600190920191016101dc565b508482101561021a5786840151600019600387901b60f8161c191681555b50505050600190811b01905550565b611d6b806102386000396000f3fe608060405234801561001057600080fd5b506004361061012c5760003560e01c806370a08231116100ad578063b88d4fde11610071578063b88d4fde146102b3578063c87b56dd146102c6578063e985e9c5146102d9578063ef690cc0146102ec578063f320beac146102f457600080fd5b806370a082311461025257806382367b2d14610265578063936a7f8a1461027857806395d89b4114610298578063a22cb465146102a057600080fd5b806342842e0e116100f457806342842e0e146101c1578063429b62e5146101d4578063543b1d4d146101f75780636352211e1461021e5780636788a52d1461023157600080fd5b806301ffc9a71461013157806306fdde0314610159578063081812fc1461016e578063095ea7b31461019957806323b872dd146101ae575b600080fd5b61014461013f3660046115d4565b610307565b60405190151581526020015b60405180910390f35b610161610359565b6040516101509190611641565b61018161017c366004611654565b6103eb565b6040516001600160a01b039091168152602001610150565b6101ac6101a7366004611689565b610414565b005b6101ac6101bc3660046116b3565b610423565b6101ac6101cf3660046116b3565b6104b3565b6101446101e23660046116f0565b60086020526000908152604090205460ff1681565b61020a610205366004611654565b6104d3565b60405161015098979695949392919061170b565b61018161022c366004611654565b610738565b61024461023f36600461182e565b610743565b604051908152602001610150565b6102446102603660046116f0565b6108b3565b6101ac610273366004611915565b6108fb565b61028b610286366004611654565b6109b2565b6040516101509190611937565b610161610ccb565b6101ac6102ae3660046119fe565b610cda565b6101ac6102c1366004611a31565b610ce5565b6101616102d4366004611654565b610cfc565b6101446102e7366004611aad565b610d71565b610161610d9f565b6101ac610302366004611ad7565b610e2d565b60006001600160e01b031982166380ac58cd60e01b148061033857506001600160e01b03198216635b5e139f60e01b145b8061035357506301ffc9a760e01b6001600160e01b03198316145b92915050565b60606000805461036890611afa565b80601f016020809104026020016040519081016040528092919081815260200182805461039490611afa565b80156103e15780601f106103b6576101008083540402835291602001916103e1565b820191906000526020600020905b8154815290600101906020018083116103c457829003601f168201915b5050505050905090565b60006103f682610ee3565b506000828152600460205260409020546001600160a01b0316610353565b61041f828233610f1c565b5050565b6001600160a01b03821661045257604051633250574960e11b8152600060048201526024015b60405180910390fd5b600061045f838333610f29565b9050836001600160a01b0316816001600160a01b0316146104ad576040516364283d7b60e01b81526001600160a01b0380861660048301526024820184905282166044820152606401610449565b50505050565b6104ce83838360405180602001604052806000815250610ce5565b505050565b600960205260009081526040902080546001820180549192916104f590611afa565b80601f016020809104026020016040519081016040528092919081815260200182805461052190611afa565b801561056e5780601f106105435761010080835404028352916020019161056e565b820191906000526020600020905b81548152906001019060200180831161055157829003601f168201915b50505050509080600201805461058390611afa565b80601f01602080910402602001604051908101604052809291908181526020018280546105af90611afa565b80156105fc5780601f106105d1576101008083540402835291602001916105fc565b820191906000526020600020905b8154815290600101906020018083116105df57829003601f168201915b50505050509080600301805461061190611afa565b80601f016020809104026020016040519081016040528092919081815260200182805461063d90611afa565b801561068a5780601f1061065f5761010080835404028352916020019161068a565b820191906000526020600020905b81548152906001019060200180831161066d57829003601f168201915b5050505050908060040154908060050180546106a590611afa565b80601f01602080910402602001604051908101604052809291908181526020018280546106d190611afa565b801561071e5780601f106106f35761010080835404028352916020019161071e565b820191906000526020600020905b81548152906001019060200180831161070157829003601f168201915b505050506006830154600790930154919260ff1691905088565b600061035382610ee3565b3360009081526008602052604081205460ff166107725760405162461bcd60e51b815260040161044990611b34565b600060066000815461078390611b57565b9182905550604080516101008101825282815260208082018c81528284018c9052606083018b9052608083018a905260a08301899052600060c0840181905260e0840189905285815260099092529290208151815591519293509160018201906107ed9082611bc5565b50604082015160028201906108029082611bc5565b50606082015160038201906108179082611bc5565b506080820151600482015560a082015160058201906108369082611bc5565b5060c082015160068201805460ff191691151591909117905560e0909101516007909101556108658982611022565b886001600160a01b0316817fc90e02727a6d339588cdd8fd77a925792b5b9c252ad61b67e234e5fde620e2bb8660405161089f9190611641565b60405180910390a398975050505050505050565b60006001600160a01b0382166108df576040516322718ad960e21b815260006004820152602401610449565b506001600160a01b031660009081526003602052604090205490565b3360009081526008602052604090205460ff1661092a5760405162461bcd60e51b815260040161044990611b34565b6000828152600260205260409020546001600160a01b031661095e5760405162461bcd60e51b815260040161044990611c84565b600082815260096020526040908190206007018290555182907f945c1c4e99aa89f648fbfe3df471b916f719e16d960fcec0737d4d56bd696838906109a69084815260200190565b60405180910390a25050565b6109fc604051806101000160405280600081526020016060815260200160608152602001606081526020016000815260200160608152602001600015158152602001600081525090565b6000828152600260205260409020546001600160a01b0316610a305760405162461bcd60e51b815260040161044990611c84565b600960008381526020019081526020016000206040518061010001604052908160008201548152602001600182018054610a6990611afa565b80601f0160208091040260200160405190810160405280929190818152602001828054610a9590611afa565b8015610ae25780601f10610ab757610100808354040283529160200191610ae2565b820191906000526020600020905b815481529060010190602001808311610ac557829003601f168201915b50505050508152602001600282018054610afb90611afa565b80601f0160208091040260200160405190810160405280929190818152602001828054610b2790611afa565b8015610b745780601f10610b4957610100808354040283529160200191610b74565b820191906000526020600020905b815481529060010190602001808311610b5757829003601f168201915b50505050508152602001600382018054610b8d90611afa565b80601f0160208091040260200160405190810160405280929190818152602001828054610bb990611afa565b8015610c065780601f10610bdb57610100808354040283529160200191610c06565b820191906000526020600020905b815481529060010190602001808311610be957829003601f168201915b5050505050815260200160048201548152602001600582018054610c2990611afa565b80601f0160208091040260200160405190810160405280929190818152602001828054610c5590611afa565b8015610ca25780601f10610c7757610100808354040283529160200191610ca2565b820191906000526020600020905b815481529060010190602001808311610c8557829003601f168201915b5050509183525050600682015460ff161515602082015260079091015460409091015292915050565b60606001805461036890611afa565b61041f33838361103c565b610cf0848484610423565b6104ad848484846110db565b6060610d0782610ee3565b506000610d1f60408051602081019091526000815290565b90506000815111610d3f5760405180602001604052806000815250610d6a565b80610d4984611204565b604051602001610d5a929190611cac565b6040516020818303038152906040525b9392505050565b6001600160a01b03918216600090815260056020908152604080832093909416825291909152205460ff1690565b60078054610dac90611afa565b80601f0160208091040260200160405190810160405280929190818152602001828054610dd890611afa565b8015610e255780601f10610dfa57610100808354040283529160200191610e25565b820191906000526020600020905b815481529060010190602001808311610e0857829003601f168201915b505050505081565b3360009081526008602052604090205460ff16610e5c5760405162461bcd60e51b815260040161044990611b34565b6000828152600260205260409020546001600160a01b0316610e905760405162461bcd60e51b815260040161044990611c84565b600082815260096020908152604091829020600601805460ff1916841515908117909155915191825283917f9a5939a701e315312ffd484f4e922faaa665911da46327fa44cf9991529200e791016109a6565b6000818152600260205260408120546001600160a01b03168061035357604051637e27328960e01b815260048101849052602401610449565b6104ce8383836001611297565b6000828152600260205260408120546001600160a01b0390811690831615610f5657610f5681848661139d565b6001600160a01b03811615610f9457610f73600085600080611297565b6001600160a01b038116600090815260036020526040902080546000190190555b6001600160a01b03851615610fc3576001600160a01b0385166000908152600360205260409020805460010190555b60008481526002602052604080822080546001600160a01b0319166001600160a01b0389811691821790925591518793918516917fddf252ad1be2c89b69c2b068fc378daa952ba7f163c4a11628f55a4df523b3ef91a4949350505050565b61041f828260405180602001604052806000815250611401565b6001600160a01b03821661106e57604051630b61174360e31b81526001600160a01b0383166004820152602401610449565b6001600160a01b03838116600081815260056020908152604080832094871680845294825291829020805460ff191686151590811790915591519182527f17307eab39ab6107e8899845ad3d59bd9653f200f220920489ca2b5937696c31910160405180910390a3505050565b6001600160a01b0383163b156104ad57604051630a85bd0160e11b81526001600160a01b0384169063150b7a029061111d903390889087908790600401611cdb565b6020604051808303816000875af1925050508015611158575060408051601f3d908101601f1916820190925261115591810190611d18565b60015b6111c1573d808015611186576040519150601f19603f3d011682016040523d82523d6000602084013e61118b565b606091505b5080516000036111b957604051633250574960e11b81526001600160a01b0385166004820152602401610449565b805181602001fd5b6001600160e01b03198116630a85bd0160e11b146111fd57604051633250574960e11b81526001600160a01b0385166004820152602401610449565b5050505050565b6060600061121183611418565b600101905060008167ffffffffffffffff8111156112315761123161177e565b6040519080825280601f01601f19166020018201604052801561125b576020820181803683370190505b5090508181016020015b600019016f181899199a1a9b1b9c1cb0b131b232b360811b600a86061a8153600a850494508461126557509392505050565b80806112ab57506001600160a01b03821615155b1561136d5760006112bb84610ee3565b90506001600160a01b038316158015906112e75750826001600160a01b0316816001600160a01b031614155b80156112fa57506112f88184610d71565b155b156113235760405163a9fbf51f60e01b81526001600160a01b0384166004820152602401610449565b811561136b5783856001600160a01b0316826001600160a01b03167f8c5be1e5ebec7d5bd14f71427d1e84f3dd0314c0f7b2291e5b200ac8c7c3b92560405160405180910390a45b505b5050600090815260046020526040902080546001600160a01b0319166001600160a01b0392909216919091179055565b6113a88383836114f0565b6104ce576001600160a01b0383166113d657604051637e27328960e01b815260048101829052602401610449565b60405163177e802f60e01b81526001600160a01b038316600482015260248101829052604401610449565b61140b8383611556565b6104ce60008484846110db565b60008072184f03e93ff9f4daa797ed6e38ed64bf6a1f0160401b83106114575772184f03e93ff9f4daa797ed6e38ed64bf6a1f0160401b830492506040015b6d04ee2d6d415b85acef81000000008310611483576d04ee2d6d415b85acef8100000000830492506020015b662386f26fc1000083106114a157662386f26fc10000830492506010015b6305f5e10083106114b9576305f5e100830492506008015b61271083106114cd57612710830492506004015b606483106114df576064830492506002015b600a83106103535760010192915050565b60006001600160a01b0383161580159061154e5750826001600160a01b0316846001600160a01b0316148061152a575061152a8484610d71565b8061154e57506000828152600460205260409020546001600160a01b038481169116145b949350505050565b6001600160a01b03821661158057604051633250574960e11b815260006004820152602401610449565b600061158e83836000610f29565b90506001600160a01b038116156104ce576040516339e3563760e11b815260006004820152602401610449565b6001600160e01b0319811681146115d157600080fd5b50565b6000602082840312156115e657600080fd5b8135610d6a816115bb565b60005b8381101561160c5781810151838201526020016115f4565b50506000910152565b6000815180845261162d8160208601602086016115f1565b601f01601f19169290920160200192915050565b602081526000610d6a6020830184611615565b60006020828403121561166657600080fd5b5035919050565b80356001600160a01b038116811461168457600080fd5b919050565b6000806040838503121561169c57600080fd5b6116a58361166d565b946020939093013593505050565b6000806000606084860312156116c857600080fd5b6116d18461166d565b92506116df6020850161166d565b929592945050506040919091013590565b60006020828403121561170257600080fd5b610d6a8261166d565b8881526101006020820152600061172661010083018a611615565b8281036040840152611738818a611615565b9050828103606084015261174c8189611615565b905086608084015282810360a08401526117668187611615565b94151560c0840152505060e001529695505050505050565b634e487b7160e01b600052604160045260246000fd5b60008067ffffffffffffffff8411156117af576117af61177e565b50604051601f19601f85018116603f0116810181811067ffffffffffffffff821117156117de576117de61177e565b6040528381529050808284018510156117f657600080fd5b83836020830137600060208583010152509392505050565b600082601f83011261181f57600080fd5b610d6a83833560208501611794565b600080600080600080600060e0888a03121561184957600080fd5b6118528861166d565b9650602088013567ffffffffffffffff81111561186e57600080fd5b61187a8a828b0161180e565b965050604088013567ffffffffffffffff81111561189757600080fd5b6118a38a828b0161180e565b955050606088013567ffffffffffffffff8111156118c057600080fd5b6118cc8a828b0161180e565b9450506080880135925060a088013567ffffffffffffffff8111156118f057600080fd5b6118fc8a828b0161180e565b979a969950949793969295929450505060c09091013590565b6000806040838503121561192857600080fd5b50508035926020909101359150565b602081528151602082015260006020830151610100604084015261195f610120840182611615565b90506040840151601f1984830301606085015261197c8282611615565b9150506060840151601f1984830301608085015261199a8282611615565b915050608084015160a084015260a0840151601f198483030160c08501526119c28282611615565b91505060c08401516119d860e085018215159052565b5060e08401516101008401528091505092915050565b8035801515811461168457600080fd5b60008060408385031215611a1157600080fd5b611a1a8361166d565b9150611a28602084016119ee565b90509250929050565b60008060008060808587031215611a4757600080fd5b611a508561166d565b9350611a5e6020860161166d565b925060408501359150606085013567ffffffffffffffff811115611a8157600080fd5b8501601f81018713611a9257600080fd5b611aa187823560208401611794565b91505092959194509250565b60008060408385031215611ac057600080fd5b611ac98361166d565b9150611a286020840161166d565b60008060408385031215611aea57600080fd5b82359150611a28602084016119ee565b600181811c90821680611b0e57607f821691505b602082108103611b2e57634e487b7160e01b600052602260045260246000fd5b50919050565b6020808252600990820152682737ba1030b236b4b760b91b604082015260600190565b600060018201611b7757634e487b7160e01b600052601160045260246000fd5b5060010190565b601f8211156104ce57806000526020600020601f840160051c81016020851015611ba55750805b601f840160051c820191505b818110156111fd5760008155600101611bb1565b815167ffffffffffffffff811115611bdf57611bdf61177e565b611bf381611bed8454611afa565b84611b7e565b6020601f821160018114611c275760008315611c0f5750848201515b600019600385901b1c1916600184901b1784556111fd565b600084815260208120601f198516915b82811015611c575787850151825560209485019460019092019101611c37565b5084821015611c755786840151600019600387901b60f8161c191681555b50505050600190811b01905550565b6020808252600e908201526d13185b99081b9bdd08195e1a5cdd60921b604082015260600190565b60008351611cbe8184602088016115f1565b835190830190611cd28183602088016115f1565b01949350505050565b6001600160a01b0385811682528416602082015260408101839052608060608201819052600090611d0e90830184611615565b9695505050505050565b600060208284031215611d2a57600080fd5b8151610d6a816115bb56fea264697066735822122053a8f177df6403735421916262c502b3b6932eb6363f2330602b89747161edf564736f6c634300081e0033",
  "devdoc": {
    "details": "Core MVP for Terraforma Indonesian Land Registry. Target Chain: Monad Testnet (Chain ID: 10143). Benefit: Monad parallel execution → instant land title verification & high throughput.",
    "errors": {
      "ERC721IncorrectOwner(address,uint256,address)": [
        {
          "details": "Indicates an error related to the ownership over a particular token. Used in transfers.",
          "params": {
            "owner": "Address of the current owner of a token.",
            "sender": "Address whose tokens are being transferred.",
            "tokenId": "Identifier number of a token."
          }
        }
      ],
      "ERC721InsufficientApproval(address,uint256)": [
        {
          "details": "Indicates a failure with the `operator`’s approval. Used in transfers.",
          "params": {
            "operator": "Address that may be allowed to operate on tokens without being their owner.",
            "tokenId": "Identifier number of a token."
          }
        }
      ],
      "ERC721InvalidApprover(address)": [
        {
          "details": "Indicates a failure with the `approver` of a token to be approved. Used in approvals.",
          "params": {
            "approver": "Address initiating an approval operation."
          }
        }
      ],
      "ERC721InvalidOperator(address)": [
        {
          "details": "Indicates a failure with the `operator` to be approved. Used in approvals.",
          "params": {
            "operator": "Address that may be allowed to operate on tokens without being their owner."
          }
        }
      ],
      "ERC721InvalidOwner(address)": [
        {
          "details": "Indicates that an address can't be an owner. For example, `address(0)` is a forbidden owner in EIP-20. Used in balance queries.",
          "params": {
            "owner": "Address of the current owner of a token."
          }
        }
      ],
      "ERC721InvalidReceiver(address)": [
        {
          "details": "Indicates a failure with the token `receiver`. Used in transfers.",
          "params": {
            "receiver": "Address to which tokens are being transferred."
          }
        }
      ],
      "ERC721InvalidSender(address)": [
        {
          "details": "Indicates a failure with the token `sender`. Used in transfers.",
          "params": {
            "sender": "Address whose tokens are being transferred."
          }
        }
      ],
      "ERC721NonexistentToken(uint256)": [
        {
          "details": "Indicates a `tokenId` whose `owner` is the zero address.",
          "params": {
            "tokenId": "Identifier number of a token."
          }
        }
      ]
    },
    "events": {
      "Approval(address,address,uint256)": {
        "details": "Emitted when `owner` enables `approved` to manage the `tokenId` token."
      },
      "ApprovalForAll(address,address,bool)": {
        "details": "Emitted when `owner` enables or disables (`approved`) `operator` to manage all of its assets."
      },
      "Transfer(address,address,uint256)": {
        "details": "Emitted when `tokenId` token is transferred from `from` to `to`."
      }
    },
    "kind": "dev",
    "methods": {
      "approve(address,uint256)": {
        "details": "See {IERC721-approve}."
      },
      "balanceOf(address)": {
        "details": "See {IERC721-balanceOf}."
      },
      "getApproved(uint256)": {
        "details": "See {IERC721-getApproved}."
      },
      "isApprovedForAll(address,address)": {
        "details": "See {IERC721-isApprovedForAll}."
      },
      "mintLandCertificate(address,string,string,string,uint256,string,uint256)": {
        "details": "Mint new land certificate with an asking price. priceWei is in wei (frontend converts MON → wei with parseEther). Monad async execution → UI will see tx in 3 blocks (~3s)."
      },
      "name()": {
        "details": "See {IERC721Metadata-name}."
      },
      "ownerOf(uint256)": {
        "details": "See {IERC721-ownerOf}."
      },
      "safeTransferFrom(address,address,uint256)": {
        "details": "See {IERC721-safeTransferFrom}."
      },
      "safeTransferFrom(address,address,uint256,bytes)": {
        "details": "See {IERC721-safeTransferFrom}."
      },
      "setApprovalForAll(address,bool)": {
        "details": "See {IERC721-setApprovalForAll}."
      },
      "supportsInterface(bytes4)": {
        "details": "See {IERC165-supportsInterface}."
      },
      "symbol()": {
        "details": "See {IERC721Metadata-symbol}."
      },
      "tokenURI(uint256)": {
        "details": "See {IERC721Metadata-tokenURI}."
      },
      "transferFrom(address,address,uint256)": {
        "details": "See {IERC721-transferFrom}."
      },
      "updatePrice(uint256,uint256)": {
        "details": "Update the asking price for a land parcel. Admin only."
      }
    },
    "title": "TerraformaLand",
    "version": 1
  },
  "userdoc": {
    "kind": "user",
    "methods": {},
    "version": 1
  },
  "storageLayout": {
    "storage": [
      {
        "astId": 169,
        "contract": "contracts/TerraformaLand.sol:TerraformaLand",
        "label": "_name",
        "offset": 0,
        "slot": "0",
        "type": "t_string_storage"
      },
      {
        "astId": 171,
        "contract": "contracts/TerraformaLand.sol:TerraformaLand",
        "label": "_symbol",
        "offset": 0,
        "slot": "1",
        "type": "t_string_storage"
      },
      {
        "astId": 175,
        "contract": "contracts/TerraformaLand.sol:TerraformaLand",
        "label": "_owners",
        "offset": 0,
        "slot": "2",
        "type": "t_mapping(t_uint256,t_address)"
      },
      {
        "astId": 179,
        "contract": "contracts/TerraformaLand.sol:TerraformaLand",
        "label": "_balances",
        "offset": 0,
        "slot": "3",
        "type": "t_mapping(t_address,t_uint256)"
      },
      {
        "astId": 183,
        "contract": "contracts/TerraformaLand.sol:TerraformaLand",
        "label": "_tokenApprovals",
        "offset": 0,
        "slot": "4",
        "type": "t_mapping(t_uint256,t_address)"
      },
      {
        "astId": 189,
        "contract": "contracts/TerraformaLand.sol:TerraformaLand",
        "label": "_operatorApprovals",
        "offset": 0,
        "slot": "5",
        "type": "t_mapping(t_address,t_mapping(t_address,t_bool))"
      },
      {
        "astId": 2796,
        "contract": "contracts/TerraformaLand.sol:TerraformaLand",
        "label": "_nextTokenId",
        "offset": 0,
        "slot": "6",
        "type": "t_uint256"
      },
      {
        "astId": 2799,
        "contract": "contracts/TerraformaLand.sol:TerraformaLand",
        "label": "greeting",
        "offset": 0,
        "slot": "7",
        "type": "t_string_storage"
      },
      {
        "astId": 2820,
        "contract": "contracts/TerraformaLand.sol:TerraformaLand",
        "label": "admins",
        "offset": 0,
        "slot": "8",
        "type": "t_mapping(t_address,t_bool)"
      },
      {
        "astId": 2825,
        "contract": "contracts/TerraformaLand.sol:TerraformaLand",
        "label": "landPlots",
        "offset": 0,
        "slot": "9",
        "type": "t_mapping(t_uint256,t_struct(LandPlot)2816_storage)"
      }
    ],
    "types": {
      "t_address": {
        "encoding": "inplace",
        "label": "address",
        "numberOfBytes": "20"
      },
      "t_bool": {
        "encoding": "inplace",
        "label": "bool",
        "numberOfBytes": "1"
      },
      "t_mapping(t_address,t_bool)": {
        "encoding": "mapping",
        "key": "t_address",
        "label": "mapping(address => bool)",
        "numberOfBytes": "32",
        "value": "t_bool"
      },
      "t_mapping(t_address,t_mapping(t_address,t_bool))": {
        "encoding": "mapping",
        "key": "t_address",
        "label": "mapping(address => mapping(address => bool))",
        "numberOfBytes": "32",
        "value": "t_mapping(t_address,t_bool)"
      },
      "t_mapping(t_address,t_uint256)": {
        "encoding": "mapping",
        "key": "t_address",
        "label": "mapping(address => uint256)",
        "numberOfBytes": "32",
        "value": "t_uint256"
      },
      "t_mapping(t_uint256,t_address)": {
        "encoding": "mapping",
        "key": "t_uint256",
        "label": "mapping(uint256 => address)",
        "numberOfBytes": "32",
        "value": "t_address"
      },
      "t_mapping(t_uint256,t_struct(LandPlot)2816_storage)": {
        "encoding": "mapping",
        "key": "t_uint256",
        "label": "mapping(uint256 => struct TerraformaLand.LandPlot)",
        "numberOfBytes": "32",
        "value": "t_struct(LandPlot)2816_storage"
      },
      "t_string_storage": {
        "encoding": "bytes",
        "label": "string",
        "numberOfBytes": "32"
      },
      "t_struct(LandPlot)2816_storage": {
        "encoding": "inplace",
        "label": "struct TerraformaLand.LandPlot",
        "members": [
          {
            "astId": 2801,
            "contract": "contracts/TerraformaLand.sol:TerraformaLand",
            "label": "id",
            "offset": 0,
            "slot": "0",
            "type": "t_uint256"
          },
          {
            "astId": 2803,
            "contract": "contracts/TerraformaLand.sol:TerraformaLand",
            "label": "geoJSONHash",
            "offset": 0,
            "slot": "1",
            "type": "t_string_storage"
          },
          {
            "astId": 2805,
            "contract": "contracts/TerraformaLand.sol:TerraformaLand",
            "label": "locationProvince",
            "offset": 0,
            "slot": "2",
            "type": "t_string_storage"
          },
          {
            "astId": 2807,
            "contract": "contracts/TerraformaLand.sol:TerraformaLand",
            "label": "locationCity",
            "offset": 0,
            "slot": "3",
            "type": "t_string_storage"
          },
          {
            "astId": 2809,
            "contract": "contracts/TerraformaLand.sol:TerraformaLand",
            "label": "areaSqm",
            "offset": 0,
            "slot": "4",
            "type": "t_uint256"
          },
          {
            "astId": 2811,
            "contract": "contracts/TerraformaLand.sol:TerraformaLand",
            "label": "NIB_NomorIdentitasBidang",
            "offset": 0,
            "slot": "5",
            "type": "t_string_storage"
          },
          {
            "astId": 2813,
            "contract": "contracts/TerraformaLand.sol:TerraformaLand",
            "label": "isVerified",
            "offset": 0,
            "slot": "6",
            "type": "t_bool"
          },
          {
            "astId": 2815,
            "contract": "contracts/TerraformaLand.sol:TerraformaLand",
            "label": "priceWei",
            "offset": 0,
            "slot": "7",
            "type": "t_uint256"
          }
        ],
        "numberOfBytes": "256"
      },
      "t_uint256": {
        "encoding": "inplace",
        "label": "uint256",
        "numberOfBytes": "32"
      }
    }
  }
}